HGOBERNACION DEL ESTADO ARAGUA              010202159800063163328530/06/14000006601020003291
0000025874500000000020002275340770LAYA R JESUS G                                001911259303291
0000025478740000000010002275340770LAYA R LUISA Y                                001899386703291
0000005478700000001200002050340770LAYA R LUIS A                                 001911259803291

